:03000000020006F5
:03001F00020003D9
:03000300020032C6
:10002200AE82AF8310990280FB8E998E828F8322DB
:1000320090C20075F001E412009FD29974AAC0E048
:100042007406C0E07480C0E0120324158115811586
:0C0052008190012CE4F5F01201AE80E07A
:0E06AA000A2048656C6C6F20776F726C6400DC
:10005E00AC82AD83AEF0FF53B1BF53B2BF53B17F8D
:10006E0053B27F759850438920438780438E105337
:10007E00C4DF8C218D228E238F2490424075F00F89
:10008E00E41202BFAC820CC3E49CF58DD28ED299E1
:10009E0022AC82AD83AEF0FF53B1BF53B2BF53B1AA
:1000AE007F53B27F75985043878053C4F843C42062
:1000BE008C218D228E238F2490424075F00FE412F6
:1000CE0002BFAC82AD83AEF0FF74FFC39C74FF9D84
:1000DE00F9E49EE49F89C674FFC39CFC8CC543C49F
:1000EE0008D299223098FD859982C29822AF82C299
:1000FE00998F993099FD22AC82AD83AEF0FF53B14A
:10010E00FB53B2FB53B3BF53B4BF75F85075C4085D
:10011E0053C4DF8C218D228E238F2490424075F0A4
:10012E000FE41202BFAC82AD83AEF0FF74FFC39C2E
:10013E0074FF9DF9E49EE49F89C674FFC39CFC8CFA
:10014E00C543C4082230F8FD859A82C2F822AF82D8
:10015E00C2F98F9A30F9FD2275C7AA75C75575FD7C
:10016E005A75C7AA75C75575FDA575820022AC8252
:10017E00AD83AEF0FF538EF7438901D28CEC4D4E1A
:10018E004F601A758A7E758CFF108D0280FB1CBC29
:10019E00FF091DBDFF051EBEFF011F80E0C28C22A0
:1001AE00AC82AD83AEF0FF538EF7438901D28CEC57
:1001BE004D4E4F601A758ACA758CFA108D0280FBEF
:1001CE001CBCFF091DBDFF051EBEFF011F80E0C246
:1001DE008C22AC82AD83AEF0FF538EEF438910D2EA
:1001EE008EEC4D4E4F601A758BEA758DCB108F02CB
:1001FE0080FB1CBCFF091DBDFF051EBEFF011F803D
:10020E00E0C28E22AC82AD83AEF0FF53C9BF53C99C
:10021E00DF43C910D2CAEC4D4E4F601A75CC307503
:10022E00CDF810CF0280FB1CBCFF091DBDFF051EC3
:10023E00BEFF011F80E0C2CA22AC82AD83AEF0FFCA
:10024E0075C40743C408EC4D4E4F602575C52C751B
:10025E00C6CFAAC45302107B00BA10F6BB00F353EC
:10026E00C4EF1CBCFF091DBDFF051EBEFF011F8094
:10027E00D553C4F722AC82AD83AEF0FF75C40743ED
:10028E00C408EC4D4E4F602575C5D875C6FFAAC47F
:10029E005302107B00BA10F6BB00F353C4EF1CBC24
:1002AE00FF091DBDFF051EBEFF011F80D553C4F7FC
:1002BE0022FB7A20E4FCFDFEFFE5822582F582E535
:1002CE008333F583E5F033F5F0EB33FB4017DAE9D2
:1002DE008042E5822582F582E58333F583E5F033AE
:1002EE00F5F0EB33FBEC33FCED33FDEE33FEEF3389
:1002FE00FFEC9521ED9522EE9523EF95244013EC1E
:10030E009521FCED9522FDEE9523FEEF9524FF43FE
:06031E008201DABEEB22B1
:0C001300E478FFF6D8FDC201C202C2036F
:10032400C01CE581F51C24FBFFE51C24FBF88604B6
:100334000886050886068C828D838EF01205F0FBF4
:1003440070030204F2BB250280030204D7C203C275
:1003540002C201E51C24FBF874012CF6E43D08F606
:1003640008A606E51C24FBF886040886050886060C
:100374008C828D838EF01205F0FABA68028017BA67
:100384006C26D201E51C24FBF874012CF6E43D082C
:10039400F608A6068012D203E51C24FBF874012C8F
:1003A400F6E43D08F608A606E51C24FBF8860408D6
:1003B40086050886068C828D838EF01205F0FEBEBB
:1003C40063028022BE64028013BE6F02801DBE736E
:1003D400028005BE78188009D202801275080A804E
:1003E4000D75081080087508008003750808300230
:1003F4004CEF24FDFEFF8E01870909870A09870B4C
:100404001919AC09AD0AAE0B8C828D838EF01205DE
:10041400F070030204E4AC09AD0AAE0B8C828D8348
:100424008EF01205F0FC0509E4B50902050A7E0008
:100434008C828E83C007120022D00780C53001173A
:10044400EF24FCFEFF8E01870C09870D09870E0936
:10045400870F191919802F300313EF14F9FF87063A
:100464008E0C750D00750E00750F008019EF24FEBB
:10047400FEFF8E018705098706198D0CEEF50D33F5
:1004840095E0F50EF50FE508603875182575190027
:10049400751A4085081B850C82850D83850EF0E551
:1004A4000FC0071205A2D0077925E7FE60327D0050
:1004B4008E828D83C007C001120022D001D00709AB
:1004C40080E8AE0C7D008E828D83C007120022D09E
:1004D40007800D7E008B828E83C007120022D00716
:1004E400E51C24FBF806B60002080602032DD01C06
:1004F4002285821485831585F016F5177B208513D4
:1005040021752200752300752400851482851583C6
:100514008516F0E517C00312060CAA82FFD00374F7
:10052400302AFF24C650068F0674072EFF1BEB24C7
:1005340031F8A60785132175220075230075240060
:100544008514828515838516F0E517C0031202BF52
:1005540085821485831585F016F517D003E51445B7
:10056400154516451770978B07AC10AD11AE12EFF9
:100574002431F987038C828D838EF0EB12068FA3CE
:10058400AC82AD830FBF20E78C108D118E12AD109D
:10059400AE11AF128D828E838FF0E402068FAC828F
:1005A400AD83AEF0FF30E72E740AB51B29A918AA53
:1005B40019AB1A89828A838BF0742D12068F740109
:1005C40029F518E43AF5198B1AC3E49CFCE49DFD63
:1005D400E49EFEE49FFF851810851911851A128583
:0C05E4001B138C828D838EF0EF0204F557
:0D000600758150120166E58260030200035F
:1005F00020F71430F6148883A88220F507E6A88334
:1006000075830022E280F7E49322E022F9E5214598
:10061000224523452460777800C308E52420E73B82
:10062000E52125E0F521E52233F522E52333F52305
:10063000E52433F524E5829521E5839522E5F095BF
:1006400023E9952450D4C3E52413F524E52313F5B9
:1006500023E52213F522E52113F521E5829521FCFE
:10066000E5839522FDE5F09523FEE995244007F901
:100670008EF08D838C82C3E52413F524E52313F5D6
:1006800023E52213F522E52113F521D8CEE9222016
:10069000F71130F6138883A88220F509F6A8837530
:0A06A00083002280FEF280F5F022B4
:00000001FF
